:0800000026C051C0FDCFFCCF6A
:10000800FBCFFACFF9CFF8CFF7CFF6CFF5CF58C05F
:10001800F3CFF2CFF1CFF0CFEFCFEECFEDCF102768
:10002800E80364000A00010000100001100001004C
:100038000000000000000000010002003800060077
:1000480006003A000000F894EE27ECBBF1E0FBBF95
:10005800EBBFE5BF8DE0A2E0BB27ED938A95E9F7FA
:1000680080E094E0A0E6ED930197E9F7E0E4F0E0A2
:1000780085919591009761F0A591B591059015909E
:10008800BF01F00105900D920197E1F7FB01F0CF58
:10009800EFE5EDBFE4E0EEBFC0E6D1E07DC0D0D033
:1000A800EBB7EBBFA2E3B0E0DED0D8D019F4AD9A3D
:1000B800AC9802C0AD98AC9AEBB7E064EBBF5EC0F9
:1000C800BFD0DBD01BB10CB1E12FEC7109F054C0EB
:1000D8007720E1F4013319F4AD9AAC9816C00233D5
:1000E80019F4AD98AC9A11C0033351F4B7D011F498
:1000F800E0E301C0E1E34E2E5D9BFECF4CB805C0A6
:10010800043319F4E1E07E2E662425C00933E9F4AE
:100118007724A8E8B3E1A7D09924961450F45D9BFE
:10012800FECFE92DF0E0E05AFE4FE081ECB9939460
:10013800F4CFE0E6F1E0FA93EA93E0E0EA93A0E690
:10014800B1E072D0DF0160D006C0E62DF0E0E05AE1
:10015800FE4F00836394E82D8394F0E0EE56FE4F43
:100168000083E8E0E81509F48824A394E8E0EA1598
:1001780019F4AA24689420F809911991E991EFBF1C
:10018800F991E991B991A991999189917991699197
:10019800F990199009901895E0E0E7BBE8BBE0E317
:1001A800E4BBE0E1E5BBE0E0E1BBE4E0E2BBE0E0CA
:1001B800E3BFE2BFEFBDEEBDEDBDECBDE7BDE6BD03
:1001C800EBBDEABDE9BDE8BDE2BDE5BDE4BDE3BD0B
:1001D800E9BFEBB7E064EBBFE2E0E5BFE0E4EABF0C
:1001E800E0E0EBB9E8E9EAB9E6E8E0BDE0E0E0BD67
:1001F800E3E3E9B9E0E8E8B9E0E0E0BFE6B9EDB982
:10020800E6BF7894FFCFFFCFBA93AA93B981A881AC
:10021800109631F0FC81EB816A8161931197E9F7BF
:10022800EB81FC8125960895BA93AA93A991B99177
:10023800EE27FF276D91662311F03196FBCF0895C5
:100248000A921A92FA926A937A938A939A93AA9341
:10025800BA93EA93FA93EFB7EA930895E5B3E07295
:100268005E2E55200895109639F080ED97E001979D
:10027800F1F7A8951197C9F708951A930A93089565
:00000001FF
